:100000000C943E000C9448000C9448000C9448005A
:100010000C9448000C9448000C9448000C94480040
:100020000C9448000C9448000C9448000C94480030
:100030000C9448000C9448000C9448000C94480020
:100040000C9448000C9448000C9448000C94480010
:100050000C9448000C9448000C9448000C94480000
:100060000C9448000C9448000C9448000C944800F0
:100070000C9448000C9448000C94480011241FBEB6
:10008000CFEFD8E0DEBFCDBF0E944A000C947E00C7
:100090000C9400008FEF81B91AB812B851E082B108
:1000A0008F5F82B92FEF8DE399E42150804090401B
:1000B000E1F700C0000082B18F5F82B9EFEFFDE38E
:1000C00029E4E150F0402040E1F700C0000021E0C9
:1000D00084EB90E04FEF03C02111FCCF41E032B13F
:1000E000340F32B92527E5E3F2E83197F1F7000044
:1000F000019791F782B18E5F82B9D1CFF894FFCF8B
:00000001FF
