:100000000C943E000C9448000C9448000C9448005A
:100010000C9448000C9448000C9448000C94480040
:100020000C9448000C9448000C9448000C94480030
:100030000C9448000C9448000C9448000C94480020
:100040000C9448000C9448000C9448000C94480010
:100050000C9448000C9448000C9448000C94480000
:100060000C9448000C9448000C9448000C944800F0
:100070000C9448000C9448000C94480011241FBEB6
:10008000CFEFD8E0DEBFCDBF0E9459000C946500D1
:100090000C9400004A9B0BC08FE19EE40197F1F79E
:1000A00000C0000089B182FB882780F9089580E0B4
:1000B00008958FEF81B91AB8C1E00E944A008823E1
:0E00C00011F0C2B9FACF12B8F8CFF894FFCF02
:00000001FF
